:02000002B0004C
:1040000000400B0096620B00000006000C00050249
:0840100004012215000000006C
:04401800885B0B00B6
:10401C00034613F8012B002AFBD1181A01387047FC
:10402C0009480A49884208B505D0094A824202D09B
:10403C00121A01F0DEFC0748074A0021121A01F09F
:10404C0000FD014808BD00BFF0E4032074610B00C3
:10405C00E4E50320E4E50320F0E7032070B5074E08
:10406C00074C01F0DFFAA41BA4080025AC4200D1D8
:10407C0070BD56F8043B98470135F7E72C610B00EF
:10408C0050610B0000F022B808B500F02FF8BDE825
:10409C00084001F07FBA00F06DBE00F06BBE00F07E
:1040AC0071BE0078B0FA80F04009704701230370AC
:1040BC0070470000014800F08BBB00BFE4E5032013
:1040CC00014800F077BB00BFE4E5032008B50548C4
:1040DC0000F0B0F8044800F079FCBDE80840024854
:1040EC0000F052BC08E60320E4E5032008B50548BF
:1040FC0000F068F9044800F05BFCBDE8084064205F
:10410C0000F068BE08E60320E4E50320F7B52D4F68
:10411C002D4E2E4D0221384600F094F90122114605
:10412C00304600F0A1F901220021284600F0D4F914
:10413C00274A284B07CA83E80700274A07CA03F116
:10414C000C0484E80700254A07CA03F1180484E824
:10415C000700234A07CA03F1240484E80700214A14
:10416C0007CA03F1300484E807000124CDE9007488
:10417C001D4F1E48324629461D4D1E4E00F042F87A
:10418C0022460421384600F0A7F90FCD34460FC45F
:10419C002B68194D23600FCD06F114040FC42B6846
:1041AC00164D23600FCD06F128040FC42B6814485C
:1041BC00236032460323394603B0BDE8F04000F0DB
:1041CC002BBB00BFA8E6032064E6032000E6032017
:1041DC00F0E4032028E60320FCE4032008E5032098
:1041EC0014E5032020E50320B0E6032008E60320B5
:1041FC003CE503206CE6032064E5032050E5032036
:10420C00E4E50320F8B504461D460F46164601F0BA
:10421C003BF9074901F007F80023E3602377069B7D
:10422C002361079BA560C4E9007663612046F8BD55
:10423C009C5B0B0073B5044601F026F90D490E4E3C
:10424C0000F0F1FF206800F055F9606800F01AF9F1
:10425C0000256369AB420AD92369009603EBC503B9
:10426C0068465B680193013500F0DCF8F1E702B0B9
:10427C0070BD00BFBB5B0B00645C0B0073B5094EDB
:10428C00054600246B69A3420AD92B69009603EBFF
:10429C00C40368465B680193013400F0B7F8F1E79A
:1042AC0002B070BD645C0B0073B5094E054600246A
:1042BC006B69A3420AD92B69009603EBC4036846C9
:1042CC005B680193013400F0A1F8F1E702B070BD16
:1042DC00645C0B0038B504460D4600F0B7FBA061DA
:1042EC002B78042B1FD8DFE803F00E1A03161A00E4
:1042FC002046FFF7C3FF606800F0D2F82068BDE8E5
:10430C00384000F013B9606800F0D8F82068BDE8B8
:10431C00384000F0FDB8606800F0C2F8F6E72046BF
:10432C00FFF7C2FFE7E738BD10B5044601F0ACF863
:10433C00034900F078FF0023A361E360237710BDED
:10434C00D35B0B00002310B583610B780446042B60
:10435C001BD8DFE803F0070703070F00BDE8104088
:10436C00FFF7A2BF406800F09BF82068BDE8104042
:10437C0000F0DCB8406800F093F8206800F0D6F844
:10438C002046BDE81040FFF7CFBF10BD38B504463E
:10439C000D4601F079F80A4900F045FFE16811B1CA
:1043AC002046FFF7CFFFE56025B92046BDE8384031
:1043BC00FFF7BABF29462046BDE83840FFF78ABF51
:1043CC00F05B0B0010B5044601F05EF80E4900F0EE
:1043DC002AFF237F0BB1E36823B92046BDE81040C8
:1043EC00FFF7A2BFA3696BB100F030FBA269E368D1
:1043FC00801A5A68904205D320469968BDE810404F
:10440C00FFF7C4BF10BD00BF135C0B00704700006A
:10441C0008B501F039F8BDE80840014900F003BFC8
:10442C002A5C0B0010B5044601F02EF8044900F08C
:10443C00FAFEA0880121BDE8104001F063B900BF6D
:10444C00375C0B0038B5064B036004460D4601F093
:10445C001BF8044900F0E7FE6560204638BD00BF3C
:10446C00645C0B00455C0B0010B5044600F06CF866
:10447C0001F00AF8024900F0D6FE204610BD00BF3C
:10448C00745C0B0010B5044600F0FEFF034900F00D
:10449C00CAFE2046BDE8104000F068B8925C0B00E4
:1044AC0010B5044600F0F0FF034900F0BCFE2046B6
:1044BC00BDE8104000F080B8A95C0B0010B50446B4
:1044CC0000F0E2FF034900F0AEFE2046BDE81040CC
:1044DC0000F062B8C35C0B0010B5044600F034F871
:1044EC0000F0D2FF024900F09EFE204610BD00BF36
:1044FC00DC5C0B0010B5044600F0C6FF034900F06D
:10450C0092FE2046BDE8104000F030B8F75C0B007E
:10451C0010B5044600F0B8FF034900F084FE2046B5
:10452C00BDE8104000F048B80C5D0B0010B5044617
:10453C0000F0AAFF034900F076FE2046BDE81040CB
:10454C0000F02AB8205D0B0070B504460E461546E7
:10455C0000F09AFF044900F066FE002326602571E6
:10456C006371204670BD00BF355D0B0010B504466D
:10457C0000F08AFF074900F056FE2088012101F067
:10458C00C1F8208801F0E8F823791B1A58425841E9
:10459C00607110BD515D0B0010B5044600F074FF46
:1045AC00044900F040FE2179208801F0BCF8012379
:1045BC00637110BD665D0B0010B5044600F064FF1E
:1045CC00064900F030FE21792088B1FA81F14909C1
:1045DC0001F0A9F80023637110BD00BF7B5D0B00D7
:1045EC00F0B5541E04EBD4744FEA640C0C46A4458D
:1045FC0012DD651C6D0005F1FF3E50F8257050F87A
:10460C002E60BF68B668B742B8BF754650F82560D3
:10461C0040F824602C46EAE7D5070CD4023A02EBAA
:10462C00D272B4EB620F06D16200013250F8225004
:10463C0040F824501446621E02EBD2725210A14272
:10464C004FEA840C00EB84050DDA50F822409E688A
:10465C00A768B74207DA40F80C40541E04EBD47537
:10466C0014466A10EBE72B60F0BD8842F8B504469F
:10467C000E461ED0051DAE421BD02F682368BA68AB
:10468C009B689A4209DAAC4204D02A1B2146201DB1
:10469C0001F0BDF927600435EDE72B4653F8042CE7
:1046AC00B8689168884202DA43F80429F6E71F607B
:1046BC00F1E7F8BD2DE9F84F0446164698460D462D
:1046CC0000F1040B291B402963DD4FEAA109CEB987
:1046DC00A9F10201491054F821304A462046FFF74F
:1046EC007FFF09B10139F6E72B1B042B51DD55F87F
:1046FC00043D22682A602A1B921000212046FFF7F5
:10470C006FFFF1E7C910D4F8049054F82100D9F8E0
:10471C0008A0D0F808E055F804CC2268DCF8083082
:10472C00F24506F1FF360CDA9E4503DA206044F8B8
:10473C0021200AE09A4506DAC4F800C045F8042C9A
:10474C0003E09A451EDAC4E9009259462A462068CD
:10475C00894651F8043BD0F808A098685045F6DB20
:10476C00101F024650F804E9DEF80870BA45F8DB71
:10477C0091450AD32946434632464846FFF79AFFED
:10478C004D469FE79E45D1DAD6E741F804EC13601D
:10479C00DDE7BDE8F88F0EB403B503AB012153F888
:1047AC00042B019300F067FD02B05DF804EB03B03D
:1047BC007047000010B5044600F066FE034900F097
:1047CC0032FD6069BDE81040FFF7B0BE8F5D0B0095
:1047DC0010B5044600F058FE084900F024FD237E75
:1047EC0033B900F051FEBDE81040054900F01BBD87
:1047FC006069BDE81040FFF78BBE00BFAE5D0B00DB
:10480C00CC5D0B0010B50446006818B1A168091AFC
:10481C00FFF745FC204610BD2DE9F041002588B07E
:10482C00C0E900558560044616461F46884600F0D0
:10483C002BFE394900F0F7FC1422C4F814800596BD
:10484C00082002FB07660696CDE902550495FFF792
:10485C0022FC05AE0246034603CE42F8080BD4E90F
:10486C0000605960CDE90560A168A260C4E900321E
:10487C0005A80791CDE902550495FFF7C3FF02A8DF
:10488C00FFF7C0FFD4E9006846452AD0A8EB06051F
:10489C00AA10B2FA82F2C2F11F024FF000035200CA
:1048AC0041463046FFF706FF402D16DD06F1400568
:1048BC0029463046FFF7D9FE2946884511D00A68AB
:1048CC000B4653F8046C9568B068854202DA43F8DD
:1048DC000469F6E71A600431EFE741463046FFF70A
:1048EC00C4FE0E4EE7600025D4E900239B1AB5EBFD
:1048FC00A30F0CD200F0C8FD236853F825200095B7
:10490C00936812683146FFF746FF0135ECE7204605
:10491C0008B0BDE8F08100BFE75D0B00075E0B003F
:10492C0038B5D0E90054641BB1EBA40F4FEAA402D4
:10493C0002D3034800F0A7FF05EB810038BD00BF90
:10494C003A5E0B00F8B5002504462F46E368AB42EF
:10495C0018D9236853F82530188800F0FDFE064658
:10496C0040B129462046FFF7DBFF03689B689F4256
:10497C00B8BF1F4629462046FFF7D2FF0368013512
:10498C001E61E3E72761F8BD10B5044600F07CFD1D
:10499C00064900F048FC237E33B9012323762046D8
:1049AC00BDE81040FFF7CEBF10BD00BF845E0B000A
:1049BC0010B5044600F068FD034900F034FC2046B5
:1049CC00BDE81040FFF7BEBFA05E0B00F7B5044674
:1049DC0000F05AFD144900F026FC00252F46E36830
:1049EC00AB421AD929462046FFF79AFF066831795F
:1049FC00308800F087FE29462046FFF791FF0368B8
:104A0C00DB68596839B11A782AB1308800974FF0B1
:104A1C00FF3300F075FA0135E1E7204603B0BDE83D
:104A2C00F040FFF78FBF00BFB85E0B0008B5024B1C
:104A3C001B685B6C019308BD4802030008B5024B70
:104A4C001B685B68019308BD1802030008B5024B94
:104A5C001B685B69019308BD1802030008B5024B83
:104A6C001B689B68019308BD2C02030008B5024B20
:104A7C001B68DB68019308BD2C02030008B5024BD0
:104A8C001B681B69019308BD2C02030008B5024B7F
:104A9C001B685B69019308BD2C02030008B5024B2F
:104AAC001B689B69019308BD2C02030008B5024BDF
:104ABC001B68DB69019308BD2C02030008B5024B8F
:104ACC001B681B6A019308BD2802030008B5024B42
:104ADC001B685B6A019308BD2802030008B5024BF2
:104AEC001B689B6A019308BD2802030008B5024BA2
:104AFC001B68DB6A019308BD2802030008B5024B52
:104B0C001B681B6B019308BD2802030008B5024B00
:104B1C001B685B6B019308BD2802030008B5024BB0
:104B2C001B681B6C019308BD2802030008B5024BDF
:104B3C001B685B69019308BD6402030008B5024B56
:104B4C001B689B68019308BD6802030008B5024B03
:104B5C001B68DB68019308BD6802030008B5024BB3
:104B6C001B68DB69019308BD3002030008B5024BDA
:104B7C001B681B6A019308BD3002030008B5024B89
:104B8C001B68DB68019308BD3C02030008B5024BAF
:104B9C001B681B69019308BD3C02030008B5024B5E
:104BAC001B685B69019308BD3C02030008B5024B0E
:104BBC001B689B69019308BD3C02030008B5024BBE
:104BCC001B68DB69019308BD3C02030008B5024B6E
:104BDC001B681B6A019308BD3C02030008B5024B1D
:104BEC001B689B6A019308BD3C02030008B5024B8D
:104BFC001B681B6C019308BD3C02030008B5024BFB
:104C0C001B681B68019308BD4C02030008B5024BDE
:104C1C001B681B69019308BD4C02030008B5024BCD
:104C2C001B685B69019308BD4C02030008B5024B7D
:104C3C001B689B69019308BD4C02030008B5024B2D
:104C4C001B68DB69019308BD4C02030008B5024BDD
:104C5C001B681B6A019308BD4C02030008B5024B8C
:104C6C001B685B68019308BD2002030008B5024B6A
:104C7C001B685B69019308BD2002030008B5034B58
:104C8C001B68D3F88830019308BD00002002030094
:104C9C0008B5034B1B68D3F89430019308BD000092
:104CAC002002030008B5024B1B68DB6B019308BDA7
:104CBC004402030008B5024B1B685B68019308BDF6
:104CCC004002030008B5024B1B689B68019308BDAA
:104CDC004002030008B5024B1B68DB68019308BD5A
:104CEC004002030008B5024B1B681B69019308BD09
:104CFC004002030008B5024B1B685B69019308BDB9
:104D0C004002030008B5024B1B689B69019308BD68
:104D1C004002030008B5024B1B68DB69019308BD18
:104D2C004002030008B5024B1B681B6A019308BDC7
:104D3C004002030008B5024B1B681B6B019308BDB6
:104D4C004002030008B5024B1B685B6B019308BD66
:104D5C004002030008B5024B1B681B6C019308BD95
:104D6C004002030008B5024B1B685B6C019308BD45
:104D7C004002030008B5024B1B681B68019308BD79
:104D8C001C02030008B5024B1B685B68019308BD4D
:104D9C001C02030008B5024B1B685B6A019308BD3B
:104DAC001C02030008B5024B1B68DB6A019308BDAB
:104DBC001C02030008B5024B1B681B6C019308BD59
:104DCC001C02030008B5024B1B685B6C019308BD09
:104DDC001C0203000021FFF749BF0000024800231A
:104DEC000360FFF723BE00BFB8E603200022406833
:104DFC001146FFF797BF002240681146FFF7A2BF8C
:104E0C0040680022FFF796BF4068002281F0010144
:104E1C00FFF780BF002340681A461946FFF772BFA0
:104E2C00002340681A461946FFF764BF0022406809
:104E3C001146FFF757BF002240681146FFF742BFEB
:104E4C00406800220221FFF745BF002340681A4644
:104E5C00FFF730BF024B03225A60024A1A607047B8
:104E6C00BCE60320DC5E0B007047F8B50646154621
:104E7C000C468F18BC4206D0336814F8011B9B6893
:104E8C0030469847F6E72846F8BD007C0022FFF72D
:104E9C0015BE007C0021FFF719BE007C0021FFF736
:104EAC001DBE007C0021FFF721BE007C0021FFF716
:104EBC0025BE10B514210446FFF7F1F8204610BDAD
:104ECC0038B5044615464FF47A730022C4E9012321
:104EDC00094B2174084623602946FFF71FFEBF309B
:104EEC0008D16B69DB0705D56868FFF74BFFE868ED
:104EFC00FFF748FF204638BD185F0B000047000045
:104F0C002DE9FF4100241D460F4690460646FFF74B
:104F1C00CDFDA5424FF00403ADF80D408DF80C30DB
:104F2C008DF80F40A2BF9DF828308DF80E3003ACE1
:104F3C000749009443463A463046A8BF8DF80D50B9
:104F4C00FFF7ACFDB0FA80F0400904B0BDE8F08189
:104F5C00094F0B00704710B518210446FFF79FF856
:104F6C00204610BDF0B5037D062B8DB00E4600F12A
:104F7C0004074FF0000412D000F1080515F8011DCC
:104F8C000A22304600F059F9AF42044419D0002CE3
:104F9C00F4D02E21304600F037F90444EEE72F23ED
:104FAC006A4639460A208DF80040FFF7BFFD684677
:104FBC00FFF72EF833680246DB686946304698479F
:104FCC00044620460DB0F0BD10B5054B0446112229
:104FDC0040F8043B002100F034FD204610BD00BF1A
:104FEC00405F0B000346074A10B543F8042B01F150
:104FFC00100251F8044B43F8044B9142F9D10A7852
:10500C001A7010BD405F0B0010B59DF8084044EAC3
:10501C00032343EA024242EA01610423416003751F
:10502C0010BD000007B5064B0360CB7800938B785E
:10503C004A780978FFF7E8FF03B05DF804FB00BF7E
:10504C00405F0B00014B024A1A607047C4E6032014
:10505C004C5F0B00002340681A46FFF72BBE4068DC
:10506C0000220221FFF736BE002240681146FFF7EE
:10507C0029BE002240681146FFF734BE0023406869
:10508C001A461946FFF736BE002340681A461946E1
:10509C00FFF738BE40680021FFF75CBE4068002176
:1050AC00FFF760BE4068002281F00101FFF732BEBD
:1050BC0040680022FFF73EBE002240681146FFF711
:1050CC0041BE002240681146FFF72CBE2DE9F0438B
:1050DC0095B014460D460746FFF776FF00211C22BB
:1050EC000DA8009100F0ADFC40230C9320466B46BC
:1050FC000CAA0021FFF72AFD044600284BD10246DA
:10510C0001216868FFF7EEFD02218046224668689F
:10511C00FFF7E8FD009E81462146002E3BD000297A
:10512C0039D17368022B03D00A2B11D0F669F4E73E
:10513C00B8F1000FFAD0716906A8043107ADFFF77A
:10514C0071FF0FCD3C1D0FC42B6823704146EDE75A
:10515C00B9F1000FEAD07469102201A800F071FCBB
:10516C0006238DF8143001AD04F1080318341868C7
:10517C0059682A4603C20833A3421546F7D101A940
:10518C0006A807ADFFF72EFF0FCD3C1D0FC42B68F3
:10519C0023704946CAE70098FFF7D0FC384615B093
:1051AC00BDE8F083024B034A1A6000225A60704734
:1051BC00C8E60320585F0B00F8B506460D468F185D
:1051CC000024BD420CD0336815F8011B9B68304697
:1051DC009847031E01DB1C44F3E7002C08BF1C4658
:1051EC002046F8BD13B50446084659B10191FEF7A7
:1051FC000FFF23680199DB680246204602B0BDE828
:10520C001040184702B010BD03689B68184738B5AA
:10521C000D210546FFF7F8FF0A2104462846FFF743
:10522C00F3FF204438BD38B50546FFF7DBFF0446D5
:10523C002846FFF7ECFF204438BD30B58BB0002377
:10524C00012A8DF8243098BF0A2209AC0D46B1FB17
:10525C00F2F101FB125303F0FF03092B94BF30331F
:10526C003733DBB2AA4204F8013DEFD92146FFF7F0
:10527C00B9FF0BB030BD2DE9F04186B000AF05464B
:10528C000E46381D142114463B60FFF783FD13288E
:10529C000ED8391D2846FFF7A5FF04461EB1284637
:1052AC00FFF7B5FF044420461837BD46BDE8F08132
:1052BC0000F1080323F00703E846ADEB030D22468B
:1052CC00411C3B686846FFF765FD69462846FFF7B9
:1052DC0089FF0446C546E1E7014B00229A607047FE
:1052EC00D0E6032010B5044608462170FFF736FCC3
:1052FC0000236360204610BD054B02221A60054B4B
:10530C00054A9A600020C3E90000FFF7A7BC00BF64
:10531C00ECE60320E0E603200000FFFF024B1A68D6
:10532C00024B1A60704700BF78E50320F0E60320BB
:10533C0070474174704708B5007CFFF74FFC20EABA
:10534C00E07008BD08B5007CFFF720FC20EAE07097
:10535C0008BD08B5007CFFF729FC40EAE07008BDE9
:10536C0008B5007CFFF71AFC40EAE07008BD007C31
:10537C00FFF724BC37B5457C04462DB1207C03B027
:10538C00BDE83040FFF7FABB007C0191FFF726FC2B
:10539C0000280199F2DC284603B030BD10B5142169
:1053AC000446FEF77CFE204610BD000010B54FF4FD
:1053BC007A730446084611460022C4E90123044BC3
:1053CC002360012320746374FFF710FC204610BD8A
:1053DC00B05F0B00417470477047704708B50021EF
:1053EC00007CFFF723FC40EAE07008BD08B5012102
:1053FC00007CFFF71BFC40EAE07008BD08B5007CA0
:10540C00FFF70CFC20EAE07008BD08B5007CFFF744
:10541C00FDFB20EAE07008BD13B50446007C019149
:10542C00FFF7FCFB0028019901DC607C20B1207C9B
:10543C00FFF704FC20EAE07002B010BD007CFFF71F
:10544C0005BC10B514210446FEF729FE204610BDFC
:10545C0010B54FF47A73044608460021C4E90113D1
:10546C00044B23600123207463741146FFF7C6FBC1
:10547C00204610BDE05F0B0010B51422044600213D
:10548C0000F0DFFA204610BD10B50F4C88B003A811
:10549C00FFF7F2FF2178BFF35B8F11F001010FD101
:1054AC0020460191FEF7FDFD019948B103AA07487A
:1054BC00FFF7CEFF2046FEF7F9FD054800F093FA02
:1054CC00024808B010BD00BFF4E60320F8E6032044
:1054DC00E5530B00002240681146FFF703BC002285
:1054EC0040681146FFF71EBC002240681146FFF7CA
:1054FC0029BC40680022FFF71DBC4068002281F0E7
:10550C000101FFF707BC002340681A461946FFF754
:10551C00F9BB002340681A461946FFF7EBBB002283
:10552C0040681146FFF7CEBB406800220221FFF70E
:10553C00D1BB002340681A46FFF7BCBB024B0422C8
:10554C005A60024A1A6070470CE7032010600B0087
:10555C00014B1860704700BF7CE5032008B50B4B6E
:10556C0043B1FFF791FF03681B699847002801DDE1
:10557C00AFF30080064B43B100F05CF903681B6984
:10558C009847002801DDAFF3008008BD0000000043
:10559C000000000008B5FFF7E1FFFFF757FA014BD9
:1055AC00186008BD28E703200548064A064908B5D7
:1055BC00121A00F01EFA054B054A1A6008BD00BF0E
:1055CC0000F4032004F4032068620B0000F40320B1
:1055DC001E1C279A07B5002300931A466FF077011B
:1055EC00FFF756FB03B05DF804FB000007B54388DA
:1055FC000A2B08D0502B0BD1094B1B684BB103B0B5
:10560C005DF804EB1847FFF7E5FF03B05DF804FB0A
:10561C00002300931A466FF07701FFF739FBF4E78C
:10562C0018E7032010B512480021FFF7CBFB114BF4
:10563C001A68114B9A42114B0CBF012200221A70AE
:10564C0001D0FFF7B1FFFFF7F9F9044600F002FAB9
:10565C000B4B13B12046AFF3008000210848FFF735
:10566C0021FBBDE8104007480021FFF707BB00BF36
:10567C005D550B0000F403201E1C279A14E7032031
:10568C0000000000F9550B00232813B502D90020A7
:10569C0002B010BDA0F10B03022B1AD8174C2178C5
:1056AC00BFF35B8F11F001010BD120460191FEF786
:1056BC00F8FC019928B11248FFF714FE2046FEF7BA
:1056CC00F5FC0F4B1878FFF751FA0028DFD10120B9
:1056DC00DEE7012809D800F06DF80021007CFFF707
:1056EC0015FA80F00100C0B2D2E709380128EED8D3
:1056FC0000F0A0F8007CFFF769FAF2E71CE7032042
:10570C0020E70320232838B504460D460AD8FF2984
:10571C0008D0FFF7B9FF28B129462046BDE838402C
:10572C00FFF79CB938BD38B504460D46FFF79EF916
:10573C00FF2810D0062804D84D2323FA00F0C30705
:10574C0009D42046FFF7A0FF28B129462046BDE822
:10575C003840FFF793B938BD10B50446FFF786F90A
:10576C00031FDBB2012B08D92046FFF78DFF20B1B8
:10577C002046BDE81040FFF789B9002010BD7047E6
:10578C0038B50A4B036001230446436108492020C5
:10579C0000F074F8202560600549A560284600F0EB
:1057AC006DF8C4E90305204638BD00BF18000100A0
:1057BC0044600B0030B50E4D2978BFF35B8F11F0B0
:1057CC00010487B011D12846FEF76BFC68B168461E
:1057DC00FFF7D6FF6A4621460648FFF771FB2846BD
:1057EC00FEF764FC044800F0FEF8024807B030BD38
:1057FC002CE7032030E703208B570B007047000089
:10580C0038B5044614252A46002100F01AF92580E3
:10581C004025074925812846258200F02FF80449A8
:10582C006060284600F02AF8E060204638BD00BFD2
:10583C0044600B0030B50E4D2978BFF35B8F11F02F
:10584C00010487B011D12846FEF72BFC68B101A8E2
:10585C00FFF7D6FF01AA21460648FFF7A7FD284609
:10586C00FEF724FC044800F0BEF8024807B030BD37
:10587C0044E7032048E7032009580B00FEF70DBC52
:10588C0008B5FFF78FFA0FB480B584B000AF07F1FD
:10589C00180454F8042B7A601046FEF7B9FB00F29A
:1058AC00072323F00703ADEB030D00F500717A68B5
:1058BC00FC602346684600F055F8FFF773FA0000C9
:1058CC0080B59CB0064600AF0C46A41B0E4969225D
:1058DC00381D00F08EF804F1700323F00703ADEBD4
:1058EC00030D6D466822391D284600F082F82246C9
:1058FC00314605F168002C4400F07BF8002384F855
:10590C0068302846FFF7BCFF45600B002DE9F041DD
:10591C0000AF84B06D4605F10C04DFF844802346DB
:10592C004FF00A0CB2FBFCF60CFB162E18F80EE02E
:10593C0003F801ED9646BEF1090F3246F2D8E41A8F
:10594C008C4209D8C4F10C032246E91800F051F836
:10595C002046BD46BDE8F0814FF0FF34F8E700BFAC
:10596C00AE600B0001392DE9F0410746154600EBFE
:10597C00010804462A7892B344452AD2252A07D135
:10598C006A78732A09D07A2A12D0252A00D10135D7
:10599C0015F8012B04F8012BECE753F8042B013A12
:1059AC0012F8011FC9B1444513D004F8011BF7E7E5
:1059BC00AA78752AECD11E46A8EB040156F8042BE4
:1059CC002046FFF7A3FF002803DD044403353346CC
:1059DC00D0E721463846FFF773FF0235CAE722703D
:1059EC00E01BBDE8F081002301461A46184600F082
:1059FC005FB80A44914200F1FF3300D1704710B5F3
:105A0C0011F8014B03F8014F9142F9D110BD8842B6
:105A1C0010B501EB020402D98442234607D8431E79
:105A2C00A14208D011F8012B03F8012FF8E702442A
:105A3C0001468A4200D110BD13F8014D02F8014D08
:105A4C00F7E702440346934200D1704703F8011B69
:105A5C00F9E7000038B5104B1D68AB6B0446B3B9C1
:105A6C001820FFF787F90246A86320B90B4B0C48A6
:105A7C004221FFF79FF90B490B4BC0E900130B4B6D
:105A8C0083600B23838100210120C2E90401AB6BED
:105A9C0000221C615A6138BD7CE50320B9600B0003
:105AAC00D0600B000E33CDAB34126DE6ECDE05008E
:105ABC002DE9F843DFF8B8800646D8F800001F46F9
:105ACC000D46914600F056F8254B1C6834B9254C10
:105ADC001C60254B13B11B68C4F8883063681F2BFE
:105AEC0007DDD8F8000000F047F84FF0FF30BDE8B4
:105AFC00F8834EB3D4F8880088B91C4B23B9D8F876
:105B0C00000000F038F8F0E74FF48470FFF732F93A
:105B1C000028F4D00023C0E94033C4F8880063683F
:105B2C0040F8239001229A4000EB8301D0F8003119
:105B3C001343C0F80031022EC1F8807002BFD0F8B8
:105B4C0004311343C0F804316368D8F800005A1CC0
:105B5C000233626044F8235000F00EF80020C6E7D0
:105B6C00E8E703205CE7032000000000814D0B00F8
:105B7C00E0E5032070477047704700002D400B0094
:105B8C0069400B0091400B0095400B000000000099
:105B9C00436C65616E696E672053797374656D2013
:105BAC003A20496E697469616C697A696E67004361
:105BBC006C65616E696E672053797374656D203AFC
:105BCC0020536574757000436C65616E696E672057
:105BDC0053797374656D203A2044656163746976FA
:105BEC0061746500436C65616E696E6720537973EF
:105BFC0074656D203A205365742041637469766531
:105C0C00204379636C6500436C65616E696E672037
:105C1C0053797374656D203A204C6F6F7000447229
:105C2C0061696E203A204C6F6F7000447261696E2E
:105C3C00203A20536574757000447261696E203A85
:105C4C0020496E697469616C697A6174696E670068
:105C5C00000000000000000031440B001D440B004C
:105C6C0019440B0019440B00496E6A6A6563746928
:105C7C006F6E2050756D70203A20496E7469616C9E
:105C8C00697A696E6700496E6A656374696F6E2024
:105C9C0050756D70203A20536574757000496E6AAA
:105CAC00656374696F6E2050756D70203A20547561
:105CBC00726E204F666600496E6A656374696F6E1A
:105CCC002050756D70203A205475726E204F6E0006
:105CDC00496E74616B652056616C7665203A20497B
:105CEC006E7469616C697A696E6700496E74616B78
:105CFC00652056616C7665203A205365747570008A
:105D0C00496E74616B652056616C7665203A204F44
:105D1C0070656E00496E74616B652056616C7665BA
:105D2C00203A20436C6F73650052656C6179204496
:105D3C006576696365203A20496E697469616C699E
:105D4C007A696E670052656C617920446576696387
:105D5C0065203A2053657475700052656C6179202A
:105D6C00446576696365203A20436C6F7365005215
:105D7C00656C617920446576696365203A204F70C3
:105D8C00656E00576174657220496E74616B652095
:105D9C00426F78203A20436C6F73652056616C76A5
:105DAC006500576174657220496E74616B652042A1
:105DBC006F78203A204F70656E2056616C766500C6
:105DCC00576174657220496E74616B6520426F78FF
:105DDC003A2044697361626C656400576174657242
:105DEC0020496E74616B6520426F78203A20496EB1
:105DFC00697469616C697A696E670053656E736F5B
:105E0C007220776974682070696E2025642C20617B
:105E1C006E64207761746572206C6576656C2025E4
:105E2C006420697320696E6465782025640076654A
:105E3C0063746F723A3A5F4D5F72616E67655F6350
:105E4C006865636B3A205F5F6E20287768696368CA
:105E5C0020697320257A7529203E3D20746869736A
:105E6C002D3E73697A652829202877686963682034
:105E7C00697320257A752900576174657220496E03
:105E8C0074616B6520426F78203A204163746976A7
:105E9C0061746500576174657220496E74616B653D
:105EAC0020426F78203A204C6F6F700057617465F8
:105EBC007220496E74616B6520426F78203A2053D2
:105ECC006574757000000000000000000000000008
:105EDC00574E0B004D4E0B00434E0B00394E0B0032
:105EEC002D4E0B00214E0B00A1500B00A9500B00A6
:105EFC00154E0B000D4E0B00034E0B00F94D0B0015
:105F0C00D9500B000000000000000000754E0B0083
:105F1C00BF4E0B00974E0B00774E0B009F4E0B00A5
:105F2C00A74E0B00AF4E0B00B74E0B00000000004D
:105F3C0000000000714F0B00614F0B00634F0B0012
:105F4C0061707000000000000000000061500B0048
:105F5C006B500B0075500B007F500B0089500B00E1
:105F6C0095500B00A1500B00A9500B00B1500B0029
:105F7C00BD500B00C5500B00CF500B00D9500B007F
:105F8C0025592D256D2D25645425483A254D3A2546
:105F9C0053257A0061736374696D6500000000001D
:105FAC00000000003D530B00A9530B0081530B0064
:105FBC00C5510B0051530B006D530B005F530B007D
:105FCC007B530B003F530B0043530B0000000000AE
:105FDC0000000000E7530B004F540B0025540B003E
:105FEC00C5510B0017540B00E9530B00F9530B0070
:105FFC0049540B0009540B00E1530B000000000046
:10600C00000000003F550B0035550B002B550B00C5
:10601C00E1540B001F550B0013550B00A1500B0046
:10602C00A9500B0007550B00FF540B00F5540B0047
:10603C00EB540B00D9500B00006E6F7420656E6F23
:10604C0075676820737061636520666F7220666F78
:10605C00726D617420657870616E73696F6E202843
:10606C00506C65617365207375626D69742066751B
:10607C006C6C20627567207265706F72742061742D
:10608C002068747470733A2F2F6763632E676E7574
:10609C002E6F72672F627567732F293A0A202020A2
:1060AC0020003031323334353637383900524545DB
:1060BC004E54206D616C6C6F632073756363656502
:1060CC00646564002F746D702F6A656E6B696E73F6
:1060DC002D4743432D31302D706970656C696E65A9
:1060EC002D34385F32303230313132345F3136302A
:1060FC00363138303633392F7372632F6E65776CC7
:10610C0069622F6E65776C69622F6C6962632F739D
:10611C0074646C69622F72616E642E6300000000FF
:10612C0019410B00E94D0B00614E0B0051500B0057
:10613C00B1510B00E5520B0005530B0029530B001A
:04614C0049550B00A6
:10615000040000001400000003000000474E55003A
:1061600039CEBF5E2AE6D735BE0CF59C549CBB9554
:046170000C290D26C3
:106174000200000030750000FCE403200000000071
:106184001027000008E5032001000000102700008C
:1061940014E5032003000000983A000020E50320E2
:1061A40004000000E80300000000000002000000FA
:1061B400CD400B0002000000C1400B0005000000B0
:1061C40003000000500000002CE503200000000044
:1061D40007000000030000001400000034E5032061
:1061E4000000000006000000030000003200000070
:1061F4000000000000000000A05F0B0080E5032009
:10620400000000000000000000000000000000008A
:10621400000000000000000000000000000000007A
:10622400000000000000000000000000000000006A
:10623400000000000000000000000000000000005A
:10624400000000000000000000000000000000004A
:10625400000000000000000000000000000000003A
:04626400ECE7032040
:046268000000000032
:1062720000000102030405060708090A0B0C0D0EB3
:106282000F101112131415161718191A1B1C1D1EA4
:046292001F202800A1
:0462960078563412F0
:04000003B000401CED
:00000001FF
